{
  "contractName": "TokenSwap",
  "abi": [
    {
      "inputs": [],
      "stateMutability": "nonpayable",
      "type": "constructor"
    },
    {
      "anonymous": false,
      "inputs": [
        {
          "indexed": false,
          "internalType": "address",
          "name": "newAdmin",
          "type": "address"
        }
      ],
      "name": "AdminChanged",
      "type": "event"
    },
    {
      "anonymous": false,
      "inputs": [
        {
          "indexed": false,
          "internalType": "address",
          "name": "sender",
          "type": "address"
        },
        {
          "indexed": false,
          "internalType": "uint256",
          "name": "value",
          "type": "uint256"
        }
      ],
      "name": "Received",
      "type": "event"
    },
    {
      "anonymous": false,
      "inputs": [
        {
          "indexed": false,
          "internalType": "address",
          "name": "token",
          "type": "address"
        },
        {
          "indexed": false,
          "internalType": "uint256",
          "name": "value",
          "type": "uint256"
        },
        {
          "indexed": false,
          "internalType": "uint256",
          "name": "buyAmount",
          "type": "uint256"
        }
      ],
      "name": "TokenBought",
      "type": "event"
    },
    {
      "anonymous": false,
      "inputs": [
        {
          "indexed": false,
          "internalType": "address",
          "name": "token",
          "type": "address"
        },
        {
          "indexed": false,
          "internalType": "uint256",
          "name": "decimals",
          "type": "uint256"
        },
        {
          "indexed": false,
          "internalType": "uint256",
          "name": "rate",
          "type": "uint256"
        },
        {
          "indexed": false,
          "internalType": "string",
          "name": "symbol",
          "type": "string"
        }
      ],
      "name": "TokenInfoChanged",
      "type": "event"
    },
    {
      "anonymous": false,
      "inputs": [
        {
          "indexed": false,
          "internalType": "address",
          "name": "token",
          "type": "address"
        },
        {
          "indexed": false,
          "internalType": "uint256",
          "name": "sellAmount",
          "type": "uint256"
        },
        {
          "indexed": false,
          "internalType": "uint256",
          "name": "sellValue",
          "type": "uint256"
        }
      ],
      "name": "TokenSold",
      "type": "event"
    },
    {
      "anonymous": false,
      "inputs": [
        {
          "indexed": false,
          "internalType": "address",
          "name": "tokenSwap",
          "type": "address"
        },
        {
          "indexed": false,
          "internalType": "address",
          "name": "tokenReceive",
          "type": "address"
        },
        {
          "indexed": false,
          "internalType": "uint256",
          "name": "amountSwap",
          "type": "uint256"
        },
        {
          "indexed": false,
          "internalType": "uint256",
          "name": "amountReceive",
          "type": "uint256"
        }
      ],
      "name": "TokenSwapped",
      "type": "event"
    },
    {
      "inputs": [
        {
          "internalType": "address",
          "name": "",
          "type": "address"
        }
      ],
      "name": "TokenAddressToInfo",
      "outputs": [
        {
          "internalType": "uint256",
          "name": "decimals",
          "type": "uint256"
        },
        {
          "internalType": "uint256",
          "name": "rate",
          "type": "uint256"
        },
        {
          "internalType": "string",
          "name": "symbol",
          "type": "string"
        }
      ],
      "stateMutability": "view",
      "type": "function",
      "constant": true
    },
    {
      "inputs": [
        {
          "internalType": "uint256",
          "name": "",
          "type": "uint256"
        }
      ],
      "name": "tokens",
      "outputs": [
        {
          "internalType": "address",
          "name": "",
          "type": "address"
        }
      ],
      "stateMutability": "view",
      "type": "function",
      "constant": true
    },
    {
      "stateMutability": "payable",
      "type": "receive",
      "payable": true
    },
    {
      "inputs": [],
      "name": "isAdmin",
      "outputs": [
        {
          "internalType": "bool",
          "name": "",
          "type": "bool"
        }
      ],
      "stateMutability": "view",
      "type": "function",
      "constant": true
    },
    {
      "inputs": [
        {
          "internalType": "address",
          "name": "_newAdmin",
          "type": "address"
        }
      ],
      "name": "changeAdmin",
      "outputs": [],
      "stateMutability": "nonpayable",
      "type": "function"
    },
    {
      "inputs": [
        {
          "internalType": "address",
          "name": "_token",
          "type": "address"
        },
        {
          "internalType": "uint256",
          "name": "_rate",
          "type": "uint256"
        }
      ],
      "name": "setTokenAddressToInfo",
      "outputs": [],
      "stateMutability": "nonpayable",
      "type": "function"
    },
    {
      "inputs": [
        {
          "internalType": "address",
          "name": "_token",
          "type": "address"
        }
      ],
      "name": "removeTokenAddressToInfo",
      "outputs": [],
      "stateMutability": "nonpayable",
      "type": "function"
    },
    {
      "inputs": [
        {
          "internalType": "address",
          "name": "_token",
          "type": "address"
        }
      ],
      "name": "getTokenDecimals",
      "outputs": [
        {
          "internalType": "uint256",
          "name": "",
          "type": "uint256"
        }
      ],
      "stateMutability": "view",
      "type": "function",
      "constant": true
    },
    {
      "inputs": [
        {
          "internalType": "address",
          "name": "_token",
          "type": "address"
        }
      ],
      "name": "getTokenRate",
      "outputs": [
        {
          "internalType": "uint256",
          "name": "",
          "type": "uint256"
        }
      ],
      "stateMutability": "view",
      "type": "function",
      "constant": true
    },
    {
      "inputs": [
        {
          "internalType": "address",
          "name": "_token",
          "type": "address"
        }
      ],
      "name": "getTokenSymbol",
      "outputs": [
        {
          "internalType": "string",
          "name": "",
          "type": "string"
        }
      ],
      "stateMutability": "view",
      "type": "function",
      "constant": true
    },
    {
      "inputs": [],
      "name": "getTokensList",
      "outputs": [
        {
          "internalType": "address[]",
          "name": "",
          "type": "address[]"
        }
      ],
      "stateMutability": "view",
      "type": "function",
      "constant": true
    },
    {
      "inputs": [],
      "name": "getTokensDetail",
      "outputs": [
        {
          "components": [
            {
              "internalType": "uint256",
              "name": "decimals",
              "type": "uint256"
            },
            {
              "internalType": "uint256",
              "name": "rate",
              "type": "uint256"
            },
            {
              "internalType": "string",
              "name": "symbol",
              "type": "string"
            }
          ],
          "internalType": "struct TokenSwap.TokenInfo[]",
          "name": "",
          "type": "tuple[]"
        }
      ],
      "stateMutability": "view",
      "type": "function",
      "constant": true
    },
    {
      "inputs": [
        {
          "internalType": "address",
          "name": "_tokenSwap",
          "type": "address"
        },
        {
          "internalType": "address",
          "name": "_tokenReceive",
          "type": "address"
        },
        {
          "internalType": "uint256",
          "name": "_amountSwap",
          "type": "uint256"
        }
      ],
      "name": "swapToken",
      "outputs": [],
      "stateMutability": "nonpayable",
      "type": "function"
    },
    {
      "inputs": [
        {
          "internalType": "address",
          "name": "_token",
          "type": "address"
        }
      ],
      "name": "buyToken",
      "outputs": [],
      "stateMutability": "payable",
      "type": "function",
      "payable": true
    },
    {
      "inputs": [
        {
          "internalType": "address",
          "name": "_token",
          "type": "address"
        },
        {
          "internalType": "uint256",
          "name": "_sellAmount",
          "type": "uint256"
        }
      ],
      "name": "sellToken",
      "outputs": [],
      "stateMutability": "nonpayable",
      "type": "function"
    }
  ],
  "bytecode": "0x608060405234801562000010575f80fd5b50335f806101000a81548173ffffffffffffffffffffffffffffffffffffffff021916908373ffffffffffffffffffffffffffffffffffffffff160217905550601260025f8073ffffffffffffffffffffffffffffffffffffffff1673ffffffffffffffffffffffffffffffffffffffff1681526020019081526020015f205f0181905550600160025f8073ffffffffffffffffffffffffffffffffffffffff1673ffffffffffffffffffffffffffffffffffffffff1681526020019081526020015f20600101819055506040518060400160405280600381526020017f455448000000000000000000000000000000000000000000000000000000000081525060025f8073ffffffffffffffffffffffffffffffffffffffff1673ffffffffffffffffffffffffffffffffffffffff1681526020019081526020015f2060020190816200015f9190620003ca565b50620004ae565b5f81519050919050565b7f4e487b71000000000000000000000000000000000000000000000000000000005f52604160045260245ffd5b7f4e487b71000000000000000000000000000000000000000000000000000000005f52602260045260245ffd5b5f6002820490506001821680620001e257607f821691505b602082108103620001f857620001f76200019d565b5b50919050565b5f819050815f5260205f209050919050565b5f6020601f8301049050919050565b5f82821b905092915050565b5f600883026200025c7fffffffffffffffffffffffffffffffffffffffffffffffffffffffffffffffff826200021f565b6200026886836200021f565b95508019841693508086168417925050509392505050565b5f819050919050565b5f819050919050565b5f620002b2620002ac620002a68462000280565b62000289565b62000280565b9050919050565b5f819050919050565b620002cd8362000292565b620002e5620002dc82620002b9565b8484546200022b565b825550505050565b5f90565b620002fb620002ed565b62000308818484620002c2565b505050565b5b818110156200032f57620003235f82620002f1565b6001810190506200030e565b5050565b601f8211156200037e576200034881620001fe565b620003538462000210565b8101602085101562000363578190505b6200037b620003728562000210565b8301826200030d565b50505b505050565b5f82821c905092915050565b5f620003a05f198460080262000383565b1980831691505092915050565b5f620003ba83836200038f565b9150826002028217905092915050565b620003d58262000166565b67ffffffffffffffff811115620003f157620003f062000170565b5b620003fd8254620001ca565b6200040a82828562000333565b5f60209050601f83116001811462000440575f84156200042b578287015190505b620004378582620003ad565b865550620004a6565b601f1984166200045086620001fe565b5f5b82811015620004795784890151825560018201915060208501945060208101905062000452565b8683101562000499578489015162000495601f8916826200038f565b8355505b6001600288020188555050505b505050505050565b6138f780620004bc5f395ff3fe6080604052600436106100e0575f3560e01c80637e72fb521161007e578063b5a3794411610058578063b5a3794414610312578063b6db75a01461033a578063bf4729a714610364578063f464e7db1461038c57610120565b80637e72fb521461029257806381a73ad5146102ae5780638f283970146102ea57610120565b80634f64b2be116100ba5780634f64b2be146101a057806354dea00a146101dc5780635bab53db14610218578063785c7cf61461025657610120565b80630c0a7630146101245780630e48c9f31461014c578063466bca021461017657610120565b36610120577f88a5966d370b9919b20f3e2c13ff65706f196a4e32cc2c12bf57088f8852587433346040516101169291906120fc565b60405180910390a1005b5f80fd5b34801561012f575f80fd5b5061014a60048036038101906101459190612188565b6103b4565b005b348015610157575f80fd5b5061016061090f565b60405161016d9190612379565b60405180910390f35b348015610181575f80fd5b5061018a610b96565b6040516101979190612450565b60405180910390f35b3480156101ab575f80fd5b506101c660048036038101906101c19190612470565b610c21565b6040516101d3919061249b565b60405180910390f35b3480156101e7575f80fd5b5061020260048036038101906101fd91906124b4565b610c5c565b60405161020f91906124df565b60405180910390f35b348015610223575f80fd5b5061023e600480360381019061023991906124b4565b610ca5565b60405161024d93929190612540565b60405180910390f35b348015610261575f80fd5b5061027c600480360381019061027791906124b4565b610d51565b60405161028991906124df565b60405180910390f35b6102ac60048036038101906102a791906124b4565b610d99565b005b3480156102b9575f80fd5b506102d460048036038101906102cf91906124b4565b611032565b6040516102e1919061257c565b60405180910390f35b3480156102f5575f80fd5b50610310600480360381019061030b91906124b4565b611102565b005b34801561031d575f80fd5b506103386004803603810190610333919061259c565b611208565b005b348015610345575f80fd5b5061034e6116a6565b60405161035b91906125f4565b60405180910390f35b34801561036f575f80fd5b5061038a600480360381019061038591906124b4565b6116fb565b005b348015610397575f80fd5b506103b260048036038101906103ad919061259c565b6119d3565b005b6103bd83611cf6565b6103fc576040517f08c379a00000000000000000000000000000000000000000000000000000000081526004016103f39061267d565b60405180910390fd5b61040582611cf6565b610444576040517f08c379a000000000000000000000000000000000000000000000000000000000815260040161043b9061270b565b60405180910390fd5b5f8111610486576040517f08c379a000000000000000000000000000000000000000000000000000000000815260040161047d90612799565b60405180910390fd5b5f60025f8573ffffffffffffffffffffffffffffffffffffffff1673ffffffffffffffffffffffffffffffffffffffff1681526020019081526020015f206001015411610508576040517f08c379a00000000000000000000000000000000000000000000000000000000081526004016104ff90612801565b60405180910390fd5b5f60025f8473ffffffffffffffffffffffffffffffffffffffff1673ffffffffffffffffffffffffffffffffffffffff1681526020019081526020015f20600101541161058a576040517f08c379a000000000000000000000000000000000000000000000000000000000815260040161058190612869565b60405180910390fd5b5f8390505f839050828273ffffffffffffffffffffffffffffffffffffffff166370a08231336040518263ffffffff1660e01b81526004016105cc919061249b565b602060405180830381865afa1580156105e7573d5f803e3d5ffd5b505050506040513d601f19601f8201168201806040525081019061060b919061289b565b101561064c576040517f08c379a000000000000000000000000000000000000000000000000000000000815260040161064390612936565b60405180910390fd5b828273ffffffffffffffffffffffffffffffffffffffff1663dd62ed3e33306040518363ffffffff1660e01b8152600401610688929190612954565b602060405180830381865afa1580156106a3573d5f803e3d5ffd5b505050506040513d601f19601f820116820180604052508101906106c7919061289b565b1015610708576040517f08c379a00000000000000000000000000000000000000000000000000000000081526004016106ff906129c5565b60405180910390fd5b5f610714868686611d72565b9050808273ffffffffffffffffffffffffffffffffffffffff166370a08231306040518263ffffffff1660e01b8152600401610750919061249b565b602060405180830381865afa15801561076b573d5f803e3d5ffd5b505050506040513d601f19601f8201168201806040525081019061078f919061289b565b10156107d0576040517f08c379a00000000000000000000000000000000000000000000000000000000081526004016107c790612a53565b60405180910390fd5b8273ffffffffffffffffffffffffffffffffffffffff166323b872dd3330876040518463ffffffff1660e01b815260040161080d93929190612a71565b6020604051808303815f875af1158015610829573d5f803e3d5ffd5b505050506040513d601f19601f8201168201806040525081019061084d9190612ad0565b508173ffffffffffffffffffffffffffffffffffffffff1663a9059cbb33836040518363ffffffff1660e01b81526004016108899291906120fc565b6020604051808303815f875af11580156108a5573d5f803e3d5ffd5b505050506040513d601f19601f820116820180604052508101906108c99190612ad0565b507f30b60ee4dc75c0fb04420331b13e9ad7f8ff8fc51eac9c97d36fb20ccbe09d66868686846040516108ff9493929190612afb565b60405180910390a1505050505050565b60605f60018054905090505f8167ffffffffffffffff81111561093557610934612b3e565b5b60405190808252806020026020018201604052801561096e57816020015b61095b612086565b8152602001906001900390816109535790505b5090505f805b83811015610b8c575f6001828154811061099157610990612b6b565b5b905f5260205f20015f9054906101000a900473ffffffffffffffffffffffffffffffffffffffff16905060025f8273ffffffffffffffffffffffffffffffffffffffff1673ffffffffffffffffffffffffffffffffffffffff1681526020019081526020015f206002018054610a0690612bc5565b80601f0160208091040260200160405190810160405280929190818152602001828054610a3290612bc5565b8015610a7d5780601f10610a5457610100808354040283529160200191610a7d565b820191905f5260205f20905b815481529060010190602001808311610a6057829003601f168201915b5050505050848481518110610a9557610a94612b6b565b5b60200260200101516040018190525060025f8273ffffffffffffffffffffffffffffffffffffffff1673ffffffffffffffffffffffffffffffffffffffff1681526020019081526020015f2060010154848481518110610af857610af7612b6b565b5b6020026020010151602001818152505060025f8273ffffffffffffffffffffffffffffffffffffffff1673ffffffffffffffffffffffffffffffffffffffff1681526020019081526020015f205f0154848481518110610b5b57610b5a612b6b565b5b60200260200101515f0181815250508280610b7590612c22565b935050508080610b8490612c22565b915050610974565b5081935050505090565b60606001805480602002602001604051908101604052809291908181526020018280548015610c1757602002820191905f5260205f20905b815f9054906101000a900473ffffffffffffffffffffffffffffffffffffffff1673ffffffffffffffffffffffffffffffffffffffff1681526020019060010190808311610bce575b5050505050905090565b60018181548110610c30575f80fd5b905f5260205f20015f915054906101000a900473ffffffffffffffffffffffffffffffffffffffff1681565b5f60025f8373ffffffffffffffffffffffffffffffffffffffff1673ffffffffffffffffffffffffffffffffffffffff1681526020019081526020015f20600101549050919050565b6002602052805f5260405f205f91509050805f015490806001015490806002018054610cd090612bc5565b80601f0160208091040260200160405190810160405280929190818152602001828054610cfc90612bc5565b8015610d475780601f10610d1e57610100808354040283529160200191610d47565b820191905f5260205f20905b815481529060010190602001808311610d2a57829003601f168201915b5050505050905083565b5f60025f8373ffffffffffffffffffffffffffffffffffffffff1673ffffffffffffffffffffffffffffffffffffffff1681526020019081526020015f205f01549050919050565b610da281611cf6565b610de1576040517f08c379a0000000000000000000000000000000000000000000000000000000008152600401610dd890612cd9565b60405180910390fd5b5f3411610e23576040517f08c379a0000000000000000000000000000000000000000000000000000000008152600401610e1a90612d41565b60405180910390fd5b5f60025f8373ffffffffffffffffffffffffffffffffffffffff1673ffffffffffffffffffffffffffffffffffffffff1681526020019081526020015f206001015490505f8111610ea9576040517f08c379a0000000000000000000000000000000000000000000000000000000008152600401610ea090612da9565b60405180910390fd5b5f8290505f610eb95f8534611d72565b9050808273ffffffffffffffffffffffffffffffffffffffff166370a08231306040518263ffffffff1660e01b8152600401610ef5919061249b565b602060405180830381865afa158015610f10573d5f803e3d5ffd5b505050506040513d601f19601f82011682018060405250810190610f34919061289b565b1015610f75576040517f08c379a0000000000000000000000000000000000000000000000000000000008152600401610f6c90612a53565b60405180910390fd5b8173ffffffffffffffffffffffffffffffffffffffff1663a9059cbb33836040518363ffffffff1660e01b8152600401610fb09291906120fc565b6020604051808303815f875af1158015610fcc573d5f803e3d5ffd5b505050506040513d601f19601f82011682018060405250810190610ff09190612ad0565b507f28cab0d660ed8aedd61a8c9db00b97f6a2d67e07d87795994f440b18bc5f1aa384348360405161102493929190612dc7565b60405180910390a150505050565b606060025f8373ffffffffffffffffffffffffffffffffffffffff1673ffffffffffffffffffffffffffffffffffffffff1681526020019081526020015f20600201805461107f90612bc5565b80601f01602080910402602001604051908101604052809291908181526020018280546110ab90612bc5565b80156110f65780601f106110cd576101008083540402835291602001916110f6565b820191905f5260205f20905b8154815290600101906020018083116110d957829003601f168201915b50505050509050919050565b5f8054906101000a900473ffffffffffffffffffffffffffffffffffffffff1673ffffffffffffffffffffffffffffffffffffffff163373ffffffffffffffffffffffffffffffffffffffff161461118f576040517f08c379a000000000000000000000000000000000000000000000000000000000815260040161118690612e46565b60405180910390fd5b805f806101000a81548173ffffffffffffffffffffffffffffffffffffffff021916908373ffffffffffffffffffffffffffffffffffffffff1602179055507f7ce7ec0b50378fb6c0186ffb5f48325f6593fcb4ca4386f21861af3129188f5c816040516111fd919061249b565b60405180910390a150565b5f8054906101000a900473ffffffffffffffffffffffffffffffffffffffff1673ffffffffffffffffffffffffffffffffffffffff163373ffffffffffffffffffffffffffffffffffffffff1614611295576040517f08c379a000000000000000000000000000000000000000000000000000000000815260040161128c90612e46565b60405180910390fd5b61129e82611cf6565b6112dd576040517f08c379a00000000000000000000000000000000000000000000000000000000081526004016112d490612eae565b60405180910390fd5b5f811161131f576040517f08c379a000000000000000000000000000000000000000000000000000000000815260040161131690612f16565b60405180910390fd5b5f8290505f8173ffffffffffffffffffffffffffffffffffffffff1663313ce5676040518163ffffffff1660e01b8152600401602060405180830381865afa15801561136d573d5f803e3d5ffd5b505050506040513d601f19601f820116820180604052508101906113919190612f6a565b60ff1690505f8273ffffffffffffffffffffffffffffffffffffffff166395d89b416040518163ffffffff1660e01b81526004015f60405180830381865afa1580156113df573d5f803e3d5ffd5b505050506040513d5f823e3d601f19601f820116820180604052508101906114079190613086565b90505f60025f8773ffffffffffffffffffffffffffffffffffffffff1673ffffffffffffffffffffffffffffffffffffffff1681526020019081526020015f2060010154036114b157600185908060018154018082558091505060019003905f5260205f20015f9091909190916101000a81548173ffffffffffffffffffffffffffffffffffffffff021916908373ffffffffffffffffffffffffffffffffffffffff1602179055505b8360025f8773ffffffffffffffffffffffffffffffffffffffff1673ffffffffffffffffffffffffffffffffffffffff1681526020019081526020015f206001018190555060025f8673ffffffffffffffffffffffffffffffffffffffff1673ffffffffffffffffffffffffffffffffffffffff1681526020019081526020015f205f01548214611581578160025f8773ffffffffffffffffffffffffffffffffffffffff1673ffffffffffffffffffffffffffffffffffffffff1681526020019081526020015f205f01819055505b60025f8673ffffffffffffffffffffffffffffffffffffffff1673ffffffffffffffffffffffffffffffffffffffff1681526020019081526020015f206002016040516020016115d19190613169565b60405160208183030381529060405280519060200120816040516020016115f891906131af565b6040516020818303038152906040528051906020012014611662578060025f8773ffffffffffffffffffffffffffffffffffffffff1673ffffffffffffffffffffffffffffffffffffffff1681526020019081526020015f2060020190816116609190613350565b505b7fa61233039622f821d4843af0bb73918c91807f782525a5b6ab95d7513ffdd28585838684604051611697949392919061341f565b60405180910390a15050505050565b5f805f9054906101000a900473ffffffffffffffffffffffffffffffffffffffff1673ffffffffffffffffffffffffffffffffffffffff163373ffffffffffffffffffffffffffffffffffffffff1614905090565b5f8054906101000a900473ffffffffffffffffffffffffffffffffffffffff1673ffffffffffffffffffffffffffffffffffffffff163373ffffffffffffffffffffffffffffffffffffffff1614611788576040517f08c379a000000000000000000000000000000000000000000000000000000000815260040161177f90612e46565b60405180910390fd5b5f60025f8373ffffffffffffffffffffffffffffffffffffffff1673ffffffffffffffffffffffffffffffffffffffff1681526020019081526020015f20600101541161180a576040517f08c379a0000000000000000000000000000000000000000000000000000000008152600401611801906134d9565b60405180910390fd5b5f60025f8373ffffffffffffffffffffffffffffffffffffffff1673ffffffffffffffffffffffffffffffffffffffff1681526020019081526020015f20600101819055505f60025f8373ffffffffffffffffffffffffffffffffffffffff1673ffffffffffffffffffffffffffffffffffffffff1681526020019081526020015f205f0154146118da575f60025f8373ffffffffffffffffffffffffffffffffffffffff1673ffffffffffffffffffffffffffffffffffffffff1681526020019081526020015f205f01819055505b6040516020016118e99061351a565b6040516020818303038152906040528051906020012060025f8373ffffffffffffffffffffffffffffffffffffffff1673ffffffffffffffffffffffffffffffffffffffff1681526020019081526020015f2060020160405160200161194f9190613169565b60405160208183030381529060405280519060200120146119c75760405180602001604052805f81525060025f8373ffffffffffffffffffffffffffffffffffffffff1673ffffffffffffffffffffffffffffffffffffffff1681526020019081526020015f2060020190816119c59190613350565b505b6119d081611ed8565b50565b6119dc82611cf6565b611a1b576040517f08c379a0000000000000000000000000000000000000000000000000000000008152600401611a1290612cd9565b60405180910390fd5b5f8111611a5d576040517f08c379a0000000000000000000000000000000000000000000000000000000008152600401611a549061359e565b60405180910390fd5b5f60025f8473ffffffffffffffffffffffffffffffffffffffff1673ffffffffffffffffffffffffffffffffffffffff1681526020019081526020015f206001015490505f8111611ae3576040517f08c379a0000000000000000000000000000000000000000000000000000000008152600401611ada90612da9565b60405180910390fd5b5f839050828173ffffffffffffffffffffffffffffffffffffffff166370a08231336040518263ffffffff1660e01b8152600401611b21919061249b565b602060405180830381865afa158015611b3c573d5f803e3d5ffd5b505050506040513d601f19601f82011682018060405250810190611b60919061289b565b1015611ba1576040517f08c379a0000000000000000000000000000000000000000000000000000000008152600401611b9890612936565b60405180910390fd5b5f611bad855f86611d72565b905080471015611bf2576040517f08c379a0000000000000000000000000000000000000000000000000000000008152600401611be99061362c565b60405180910390fd5b8173ffffffffffffffffffffffffffffffffffffffff166323b872dd3330876040518463ffffffff1660e01b8152600401611c2f93929190612a71565b6020604051808303815f875af1158015611c4b573d5f803e3d5ffd5b505050506040513d601f19601f82011682018060405250810190611c6f9190612ad0565b503373ffffffffffffffffffffffffffffffffffffffff166108fc8290811502906040515f60405180830381858888f19350505050158015611cb3573d5f803e3d5ffd5b507f35ea94addbc62df281ade49cc2ad9b3d9259166170cf702928b4ddc045f7256e858583604051611ce793929190612dc7565b60405180910390a15050505050565b5f808290505f8173ffffffffffffffffffffffffffffffffffffffff166318160ddd6040518163ffffffff1660e01b8152600401602060405180830381865afa158015611d45573d5f803e3d5ffd5b505050506040513d601f19601f82011682018060405250810190611d69919061289b565b11915050919050565b5f8060025f8673ffffffffffffffffffffffffffffffffffffffff1673ffffffffffffffffffffffffffffffffffffffff1681526020019081526020015f206001015490505f60025f8673ffffffffffffffffffffffffffffffffffffffff1673ffffffffffffffffffffffffffffffffffffffff1681526020019081526020015f206001015490505f60025f8873ffffffffffffffffffffffffffffffffffffffff1673ffffffffffffffffffffffffffffffffffffffff1681526020019081526020015f205f015490505f60025f8873ffffffffffffffffffffffffffffffffffffffff1673ffffffffffffffffffffffffffffffffffffffff1681526020019081526020015f205f015490505f82600a611e8f9190613779565b8583600a611e9d9190613779565b868a611ea991906137c3565b611eb391906137c3565b611ebd9190613831565b611ec79190613831565b905080955050505050509392505050565b5f60018054905090505f7fffffffffffffffffffffffffffffffffffffffffffffffffffffffffffffffff90505f5b82811015611f94578373ffffffffffffffffffffffffffffffffffffffff1660018281548110611f3a57611f39612b6b565b5b905f5260205f20015f9054906101000a900473ffffffffffffffffffffffffffffffffffffffff1673ffffffffffffffffffffffffffffffffffffffff1603611f81578091505b8080611f8c90612c22565b915050611f07565b505f81126120815760018083611faa9190613861565b81548110611fbb57611fba612b6b565b5b905f5260205f20015f9054906101000a900473ffffffffffffffffffffffffffffffffffffffff1660018281548110611ff757611ff6612b6b565b5b905f5260205f20015f6101000a81548173ffffffffffffffffffffffffffffffffffffffff021916908373ffffffffffffffffffffffffffffffffffffffff160217905550600180548061204e5761204d613894565b5b600190038181905f5260205f20015f6101000a81549073ffffffffffffffffffffffffffffffffffffffff021916905590555b505050565b60405180606001604052805f81526020015f8152602001606081525090565b5f73ffffffffffffffffffffffffffffffffffffffff82169050919050565b5f6120ce826120a5565b9050919050565b6120de816120c4565b82525050565b5f819050919050565b6120f6816120e4565b82525050565b5f60408201905061210f5f8301856120d5565b61211c60208301846120ed565b9392505050565b5f604051905090565b5f80fd5b5f80fd5b61213d816120c4565b8114612147575f80fd5b50565b5f8135905061215881612134565b92915050565b612167816120e4565b8114612171575f80fd5b50565b5f813590506121828161215e565b92915050565b5f805f6060848603121561219f5761219e61212c565b5b5f6121ac8682870161214a565b93505060206121bd8682870161214a565b92505060406121ce86828701612174565b9150509250925092565b5f81519050919050565b5f82825260208201905092915050565b5f819050602082019050919050565b61220a816120e4565b82525050565b5f81519050919050565b5f82825260208201905092915050565b5f5b8381101561224757808201518184015260208101905061222c565b5f8484015250505050565b5f601f19601f8301169050919050565b5f61226c82612210565b612276818561221a565b935061228681856020860161222a565b61228f81612252565b840191505092915050565b5f606083015f8301516122af5f860182612201565b5060208301516122c26020860182612201565b50604083015184820360408601526122da8282612262565b9150508091505092915050565b5f6122f2838361229a565b905092915050565b5f602082019050919050565b5f612310826121d8565b61231a81856121e2565b93508360208202850161232c856121f2565b805f5b85811015612367578484038952815161234885826122e7565b9450612353836122fa565b925060208a0199505060018101905061232f565b50829750879550505050505092915050565b5f6020820190508181035f8301526123918184612306565b905092915050565b5f81519050919050565b5f82825260208201905092915050565b5f819050602082019050919050565b6123cb816120c4565b82525050565b5f6123dc83836123c2565b60208301905092915050565b5f602082019050919050565b5f6123fe82612399565b61240881856123a3565b9350612413836123b3565b805f5b8381101561244357815161242a88826123d1565b9750612435836123e8565b925050600181019050612416565b5085935050505092915050565b5f6020820190508181035f83015261246881846123f4565b905092915050565b5f602082840312156124855761248461212c565b5b5f61249284828501612174565b91505092915050565b5f6020820190506124ae5f8301846120d5565b92915050565b5f602082840312156124c9576124c861212c565b5b5f6124d68482850161214a565b91505092915050565b5f6020820190506124f25f8301846120ed565b92915050565b5f82825260208201905092915050565b5f61251282612210565b61251c81856124f8565b935061252c81856020860161222a565b61253581612252565b840191505092915050565b5f6060820190506125535f8301866120ed565b61256060208301856120ed565b81810360408301526125728184612508565b9050949350505050565b5f6020820190508181035f8301526125948184612508565b905092915050565b5f80604083850312156125b2576125b161212c565b5b5f6125bf8582860161214a565b92505060206125d085828601612174565b9150509250929050565b5f8115159050919050565b6125ee816125da565b82525050565b5f6020820190506126075f8301846125e5565b92915050565b7f5377617070696e6720746f6b656e2061646472657373206973206e6f7420616e5f8201527f20455243323020746f6b656e2100000000000000000000000000000000000000602082015250565b5f612667602d836124f8565b91506126728261260d565b604082019050919050565b5f6020820190508181035f8301526126948161265b565b9050919050565b7f526563656976696e6720746f6b656e2061646472657373206973206e6f7420615f8201527f6e20455243323020746f6b656e21000000000000000000000000000000000000602082015250565b5f6126f5602e836124f8565b91506127008261269b565b604082019050919050565b5f6020820190508181035f830152612722816126e9565b9050919050565b7f5377617070696e6720616d6f756e74206d757374206265206d6f7265207468615f8201527f6e207a65726f2e00000000000000000000000000000000000000000000000000602082015250565b5f6127836027836124f8565b915061278e82612729565b604082019050919050565b5f6020820190508181035f8301526127b081612777565b9050919050565b7f5377617070696e6720746f6b656e2072617465206973206e6f74207365742e005f82015250565b5f6127eb601f836124f8565b91506127f6826127b7565b602082019050919050565b5f6020820190508181035f830152612818816127df565b9050919050565b7f526563656976696e6720746f6b656e2072617465206973206e6f74207365742e5f82015250565b5f6128536020836124f8565b915061285e8261281f565b602082019050919050565b5f6020820190508181035f83015261288081612847565b9050919050565b5f815190506128958161215e565b92915050565b5f602082840312156128b0576128af61212c565b5b5f6128bd84828501612887565b91505092915050565b7f53656e64657220646f6573206e6f74206861766520656e6f75676820746f6b655f8201527f6e732e0000000000000000000000000000000000000000000000000000000000602082015250565b5f6129206023836124f8565b915061292b826128c6565b604082019050919050565b5f6020820190508181035f83015261294d81612914565b9050919050565b5f6040820190506129675f8301856120d5565b61297460208301846120d5565b9392505050565b7f4e6f7420656e6f75676820616c6c6f77616e63650000000000000000000000005f82015250565b5f6129af6014836124f8565b91506129ba8261297b565b602082019050919050565b5f6020820190508181035f8301526129dc816129a3565b9050919050565b7f436f6e747261637420646f65736e27742063757272656e746c792068617665205f8201527f656e6f75676820746f6b656e732e000000000000000000000000000000000000602082015250565b5f612a3d602e836124f8565b9150612a48826129e3565b604082019050919050565b5f6020820190508181035f830152612a6a81612a31565b9050919050565b5f606082019050612a845f8301866120d5565b612a9160208301856120d5565b612a9e60408301846120ed565b949350505050565b612aaf816125da565b8114612ab9575f80fd5b50565b5f81519050612aca81612aa6565b92915050565b5f60208284031215612ae557612ae461212c565b5b5f612af284828501612abc565b91505092915050565b5f608082019050612b0e5f8301876120d5565b612b1b60208301866120d5565b612b2860408301856120ed565b612b3560608301846120ed565b95945050505050565b7f4e487b71000000000000000000000000000000000000000000000000000000005f52604160045260245ffd5b7f4e487b71000000000000000000000000000000000000000000000000000000005f52603260045260245ffd5b7f4e487b71000000000000000000000000000000000000000000000000000000005f52602260045260245ffd5b5f6002820490506001821680612bdc57607f821691505b602082108103612bef57612bee612b98565b5b50919050565b7f4e487b71000000000000000000000000000000000000000000000000000000005f52601160045260245ffd5b5f612c2c826120e4565b91507fffffffffffffffffffffffffffffffffffffffffffffffffffffffffffffffff8203612c5e57612c5d612bf5565b5b600182019050919050565b7f546f6b656e2061646472657373206973206e6f7420616e20455243323020746f5f8201527f6b656e2100000000000000000000000000000000000000000000000000000000602082015250565b5f612cc36024836124f8565b9150612cce82612c69565b604082019050919050565b5f6020820190508181035f830152612cf081612cb7565b9050919050565b7f4e6f206574686572207761732073656e742e00000000000000000000000000005f82015250565b5f612d2b6012836124f8565b9150612d3682612cf7565b602082019050919050565b5f6020820190508181035f830152612d5881612d1f565b9050919050565b7f546f6b656e2072617465206973206e6f74207365742e000000000000000000005f82015250565b5f612d936016836124f8565b9150612d9e82612d5f565b602082019050919050565b5f6020820190508181035f830152612dc081612d87565b9050919050565b5f606082019050612dda5f8301866120d5565b612de760208301856120ed565b612df460408301846120ed565b949350505050565b7f4e6f7420616e2061646d696e21000000000000000000000000000000000000005f82015250565b5f612e30600d836124f8565b9150612e3b82612dfc565b602082019050919050565b5f6020820190508181035f830152612e5d81612e24565b9050919050565b7f4e6f7420616e20455243323020746f6b656e21000000000000000000000000005f82015250565b5f612e986013836124f8565b9150612ea382612e64565b602082019050919050565b5f6020820190508181035f830152612ec581612e8c565b9050919050565b7f52617465206d757374206265206d6f7265207468616e207a65726f21000000005f82015250565b5f612f00601c836124f8565b9150612f0b82612ecc565b602082019050919050565b5f6020820190508181035f830152612f2d81612ef4565b9050919050565b5f60ff82169050919050565b612f4981612f34565b8114612f53575f80fd5b50565b5f81519050612f6481612f40565b92915050565b5f60208284031215612f7f57612f7e61212c565b5b5f612f8c84828501612f56565b91505092915050565b5f80fd5b5f80fd5b612fa682612252565b810181811067ffffffffffffffff82111715612fc557612fc4612b3e565b5b80604052505050565b5f612fd7612123565b9050612fe38282612f9d565b919050565b5f67ffffffffffffffff82111561300257613001612b3e565b5b61300b82612252565b9050602081019050919050565b5f61302a61302584612fe8565b612fce565b90508281526020810184848401111561304657613045612f99565b5b61305184828561222a565b509392505050565b5f82601f83011261306d5761306c612f95565b5b815161307d848260208601613018565b91505092915050565b5f6020828403121561309b5761309a61212c565b5b5f82015167ffffffffffffffff8111156130b8576130b7612130565b5b6130c484828501613059565b91505092915050565b5f81905092915050565b5f819050815f5260205f209050919050565b5f81546130f581612bc5565b6130ff81866130cd565b9450600182165f8114613119576001811461312e57613160565b60ff1983168652811515820286019350613160565b613137856130d7565b5f5b8381101561315857815481890152600182019150602081019050613139565b838801955050505b50505092915050565b5f61317482846130e9565b915081905092915050565b5f61318982612210565b61319381856130cd565b93506131a381856020860161222a565b80840191505092915050565b5f6131ba828461317f565b915081905092915050565b5f6020601f8301049050919050565b5f82821b905092915050565b5f6008830261320f7fffffffffffffffffffffffffffffffffffffffffffffffffffffffffffffffff826131d4565b61321986836131d4565b95508019841693508086168417925050509392505050565b5f819050919050565b5f61325461324f61324a846120e4565b613231565b6120e4565b9050919050565b5f819050919050565b61326d8361323a565b6132816132798261325b565b8484546131e0565b825550505050565b5f90565b613295613289565b6132a0818484613264565b505050565b5b818110156132c3576132b85f8261328d565b6001810190506132a6565b5050565b601f821115613308576132d9816130d7565b6132e2846131c5565b810160208510156132f1578190505b6133056132fd856131c5565b8301826132a5565b50505b505050565b5f82821c905092915050565b5f6133285f198460080261330d565b1980831691505092915050565b5f6133408383613319565b9150826002028217905092915050565b61335982612210565b67ffffffffffffffff81111561337257613371612b3e565b5b61337c8254612bc5565b6133878282856132c7565b5f60209050601f8311600181146133b8575f84156133a6578287015190505b6133b08582613335565b865550613417565b601f1984166133c6866130d7565b5f5b828110156133ed578489015182556001820191506020850194506020810190506133c8565b8683101561340a5784890151613406601f891682613319565b8355505b6001600288020188555050505b505050505050565b5f6080820190506134325f8301876120d5565b61343f60208301866120ed565b61344c60408301856120ed565b818103606083015261345e8184612508565b905095945050505050565b7f5468697320746f6b656e20646f65736e2774206861766520616e7920696e666f5f8201527f2e00000000000000000000000000000000000000000000000000000000000000602082015250565b5f6134c36021836124f8565b91506134ce82613469565b604082019050919050565b5f6020820190508181035f8301526134f0816134b7565b9050919050565b50565b5f6135055f836130cd565b9150613510826134f7565b5f82019050919050565b5f613524826134fa565b9150819050919050565b7f53656c6c696e6720616d6f756e74206d757374206265206d6f7265207468616e5f8201527f207a65726f2e0000000000000000000000000000000000000000000000000000602082015250565b5f6135886026836124f8565b91506135938261352e565b604082019050919050565b5f6020820190508181035f8301526135b58161357c565b9050919050565b7f436f6e747261637420646f65736e27742063757272656e746c792068617665205f8201527f656e6f756768204554482e000000000000000000000000000000000000000000602082015250565b5f613616602b836124f8565b9150613621826135bc565b604082019050919050565b5f6020820190508181035f8301526136438161360a565b9050919050565b5f8160011c9050919050565b5f808291508390505b600185111561369f5780860481111561367b5761367a612bf5565b5b600185161561368a5780820291505b80810290506136988561364a565b945061365f565b94509492505050565b5f826136b75760019050613772565b816136c4575f9050613772565b81600181146136da57600281146136e457613713565b6001915050613772565b60ff8411156136f6576136f5612bf5565b5b8360020a91508482111561370d5761370c612bf5565b5b50613772565b5060208310610133831016604e8410600b84101617156137485782820a90508381111561374357613742612bf5565b5b613772565b6137558484846001613656565b9250905081840481111561376c5761376b612bf5565b5b81810290505b9392505050565b5f613783826120e4565b915061378e836120e4565b92506137bb7fffffffffffffffffffffffffffffffffffffffffffffffffffffffffffffffff84846136a8565b905092915050565b5f6137cd826120e4565b91506137d8836120e4565b92508282026137e6816120e4565b915082820484148315176137fd576137fc612bf5565b5b5092915050565b7f4e487b71000000000000000000000000000000000000000000000000000000005f52601260045260245ffd5b5f61383b826120e4565b9150613846836120e4565b92508261385657613855613804565b5b828204905092915050565b5f61386b826120e4565b9150613876836120e4565b925082820390508181111561388e5761388d612bf5565b5b92915050565b7f4e487b71000000000000000000000000000000000000000000000000000000005f52603160045260245ffdfea26469706673582212203b978de4fdc10761f16e4acd888c00655bcd98b219a234f571a0248750ef7dd264736f6c63430008150033",
  "immutableReferences": {},
  "source": "// SPDX-License-Identifier: UNLICENSED \r\npragma solidity ^0.8.0;\r\n\r\nimport \"@openzeppelin/contracts/token/ERC20/extensions/IERC20Metadata.sol\";\r\n\r\ncontract TokenSwap {\r\n  address payable admin;\r\n\r\n  struct TokenInfo {\r\n    uint256 decimals; // decimals of token\r\n    uint256 rate; // number of tokens traded with 1 ETH\r\n    string symbol; // symbol of token\r\n  }\r\n\r\n  // unorderd array for storing address of configured tokens\r\n  address[] public tokens;\r\n  \r\n  // value of token in ETH\r\n  mapping (address => TokenInfo) public TokenAddressToInfo;\r\n\r\n  event AdminChanged(address newAdmin);\r\n  event TokenInfoChanged(address token, uint256 decimals, uint256 rate, string symbol);\r\n  event TokenSwapped(address tokenSwap, address tokenReceive, uint256 amountSwap, uint256 amountReceive);\r\n  event TokenBought(address token, uint256 value, uint256 buyAmount);\r\n  event TokenSold(address token, uint256 sellAmount, uint256 sellValue);\r\n  event Received(address sender, uint256 value);\r\n\r\n  modifier onlyAdmin() {\r\n    require(payable(msg.sender) == admin, \"Not an admin!\");\r\n    _;\r\n  }\r\n\r\n  // using address(0) for ETH's mapping key\r\n  constructor() {\r\n    admin = payable(msg.sender);\r\n    TokenAddressToInfo[address(0)].decimals = 18;\r\n    TokenAddressToInfo[address(0)].rate = 1;\r\n    TokenAddressToInfo[address(0)].symbol = \"ETH\";\r\n  }\r\n\r\n  // check if sender is admin\r\n  function isAdmin() external view returns(bool) {\r\n    return msg.sender == address(admin);\r\n  }\r\n\r\n  // allow admin to choose a new admin\r\n  function changeAdmin(address _newAdmin) external onlyAdmin {\r\n    admin = payable(_newAdmin);\r\n    emit AdminChanged(_newAdmin);\r\n  }\r\n\r\n  // check if provided address is an ERC20 tokensellAmount\r\n  function isERC20(address _addr) internal view returns(bool) {\r\n    IERC20Metadata ERC20ContractInstance = IERC20Metadata(_addr);\r\n    return ERC20ContractInstance.totalSupply() > 0;\r\n  }\r\n\r\n  // admin set exchange rate of token with ETH\r\n  function setTokenAddressToInfo(address _token, uint256 _rate) external onlyAdmin {\r\n    require(isERC20(_token), \"Not an ERC20 token!\");\r\n    require(_rate > 0, \"Rate must be more than zero!\");\r\n\r\n    IERC20Metadata ERC20ContractInstance = IERC20Metadata(_token);\r\n    uint256 tokenDecimals = ERC20ContractInstance.decimals();\r\n    string memory tokenSymbol = ERC20ContractInstance.symbol();\r\n\r\n    if (TokenAddressToInfo[_token].rate == 0) {\r\n      tokens.push(_token);\r\n    }\r\n    TokenAddressToInfo[_token].rate = _rate;\r\n    if (tokenDecimals != TokenAddressToInfo[_token].decimals) {\r\n      TokenAddressToInfo[_token].decimals = tokenDecimals;\r\n    }\r\n    if (keccak256(abi.encodePacked(tokenSymbol)) != keccak256(abi.encodePacked(TokenAddressToInfo[_token].symbol))) {\r\n      TokenAddressToInfo[_token].symbol = tokenSymbol;\r\n    }\r\n    \r\n    emit TokenInfoChanged(_token, tokenDecimals, _rate, tokenSymbol);\r\n  }\r\n\r\n  // admin remove a token(make token unswappable)\r\n  function removeTokenAddressToInfo(address _token) external onlyAdmin {\r\n    require(TokenAddressToInfo[_token].rate > 0, \"This token doesn't have any info.\");\r\n\r\n    TokenAddressToInfo[_token].rate = 0;\r\n    if (TokenAddressToInfo[_token].decimals != 0) {\r\n      TokenAddressToInfo[_token].decimals = 0;\r\n    }\r\n    if (keccak256(abi.encodePacked(TokenAddressToInfo[_token].symbol)) != keccak256(abi.encodePacked(\"\"))) {\r\n      TokenAddressToInfo[_token].symbol = \"\";\r\n    }\r\n    \r\n    deleteAddressFromTokens(_token);\r\n  }\r\n\r\n  // get decimals of token\r\n  function getTokenDecimals(address _token) external view returns(uint256) {\r\n    return TokenAddressToInfo[_token].decimals;\r\n  }\r\n\r\n  // get exchange rate of token with ETH\r\n  function getTokenRate(address _token) external view returns(uint256) {\r\n    return TokenAddressToInfo[_token].rate;\r\n  }\r\n\r\n  // get symbol of token\r\n  function getTokenSymbol(address _token) external view returns(string memory) {\r\n    return TokenAddressToInfo[_token].symbol;\r\n  }\r\n\r\n  // get list of configured tokens\r\n  function getTokensList() external view returns(address[] memory) {\r\n    return tokens;\r\n  }\r\n\r\n  function getTokensDetail() external view returns(TokenInfo[] memory) {\r\n    uint256 tokensLength = tokens.length;\r\n    TokenInfo[] memory result = new TokenInfo[](tokensLength);\r\n    uint256 counter = 0;\r\n\r\n    for (uint i = 0; i < tokensLength; i++) {\r\n      address token = tokens[i];\r\n      result[counter].symbol = TokenAddressToInfo[token].symbol;\r\n      result[counter].rate = TokenAddressToInfo[token].rate;\r\n      result[counter].decimals = TokenAddressToInfo[token].decimals;\r\n      counter++;\r\n    }\r\n\r\n    return result;\r\n  }\r\n\r\n  // swap _amountSwap _tokenSwap to _tokenReceive\r\n  function swapToken(address _tokenSwap, address _tokenReceive, uint256 _amountSwap) external {\r\n    // validate token address\r\n    require(isERC20(_tokenSwap), \"Swapping token address is not an ERC20 token!\");\r\n    require(isERC20(_tokenReceive), \"Receiving token address is not an ERC20 token!\");\r\n    // check if swapping amount is greater than 0\r\n    require(_amountSwap > 0, \"Swapping amount must be more than zero.\");\r\n\r\n    // check if 2 tokens already had exchange rate configured\r\n    require(TokenAddressToInfo[_tokenSwap].rate > 0, \"Swapping token rate is not set.\");\r\n    require(TokenAddressToInfo[_tokenReceive].rate > 0, \"Receiving token rate is not set.\");\r\n\r\n    IERC20Metadata TokenSwapContractInstance = IERC20Metadata(_tokenSwap);\r\n    IERC20Metadata TokenReceiveContractInstance = IERC20Metadata(_tokenReceive);\r\n    // check if sender has enough token in wallet to swap\r\n    require(TokenSwapContractInstance.balanceOf(msg.sender) >= _amountSwap, \"Sender does not have enough tokens.\");\r\n    require(TokenSwapContractInstance.allowance(msg.sender, address(this)) >= _amountSwap, \"Not enough allowance\");\r\n\r\n    uint256 receiveAmount = calculateTransferAmount(_tokenSwap, _tokenReceive, _amountSwap);\r\n\r\n    // check if contract has enough contract to swap\r\n    require(TokenReceiveContractInstance.balanceOf(address(this)) >= receiveAmount, \"Contract doesn't currently have enough tokens.\");\r\n    \r\n    // receive token from sender\r\n    TokenSwapContractInstance.transferFrom(msg.sender, address(this), _amountSwap);\r\n    // send exchanged token to sender\r\n    TokenReceiveContractInstance.transfer(msg.sender, receiveAmount);\r\n    emit TokenSwapped(_tokenSwap, _tokenReceive, _amountSwap, receiveAmount);\r\n  }\r\n\r\n  // buy tokens with ether\r\n  function buyToken(address _token) payable external {\r\n    // validate token address\r\n    require(isERC20(_token), \"Token address is not an ERC20 token!\");\r\n    // check if sender send some ether\r\n    require(msg.value > 0, \"No ether was sent.\");\r\n    \r\n    // check if token already had exchange rate configured\r\n    uint256 rate = TokenAddressToInfo[_token].rate;\r\n    require(rate > 0, \"Token rate is not set.\");\r\n\r\n    IERC20Metadata TokenContractInstance = IERC20Metadata(_token);\r\n    // calculate the amount of tokens sender get with provided ether\r\n    uint256 buyAmount = calculateTransferAmount(address(0), _token, msg.value);\r\n    // check if contract has enough tokens for sender\r\n    require(TokenContractInstance.balanceOf(address(this)) >= buyAmount, \"Contract doesn't currently have enough tokens.\");\r\n\r\n    // transfer tokens to sender\r\n    TokenContractInstance.transfer(msg.sender, buyAmount);\r\n    emit TokenBought(_token, msg.value, buyAmount);\r\n  }\r\n\r\n  // sell tokens for ether\r\n  function sellToken(address _token, uint256 _sellAmount) external {\r\n    // validate token address\r\n    require(isERC20(_token), \"Token address is not an ERC20 token!\");\r\n    // validate _sellAmount input\r\n    require(_sellAmount > 0, \"Selling amount must be more than zero.\");\r\n\r\n    // check if token already had exchange rate configured\r\n    uint256 rate = TokenAddressToInfo[_token].rate;\r\n    require(rate > 0, \"Token rate is not set.\");\r\n\r\n    IERC20Metadata TokenContractInstance = IERC20Metadata(_token);\r\n    // check if sender has enough tokens in wallet to sell\r\n    require(TokenContractInstance.balanceOf(msg.sender) >= _sellAmount, \"Sender does not have enough tokens.\");\r\n\r\n    // calculate the amount of ether sender get with provided tokens\r\n    uint256 sellValue = calculateTransferAmount(_token, address(0), _sellAmount);\r\n    require(address(this).balance >= sellValue, \"Contract doesn't currently have enough ETH.\");\r\n\r\n    // get tokens from sender\r\n    TokenContractInstance.transferFrom(msg.sender, address(this), _sellAmount);\r\n    // transfer ether to sender\r\n    payable(msg.sender).transfer(sellValue);\r\n    emit TokenSold(_token, _sellAmount, sellValue);\r\n  }\r\n\r\n  // amountReceive = _amount * (rateReceive / rateSwap) * (10 ** decimalsReceive) / (10 ** decimalsSwap)\r\n  function calculateTransferAmount(address _tokenSwap, address _tokenReceive, uint256 _amount) internal view returns (uint256) {\r\n    uint256 rateSwap = TokenAddressToInfo[_tokenSwap].rate;\r\n    uint256 rateReceive = TokenAddressToInfo[_tokenReceive].rate;\r\n    uint256 decimalsSwap = TokenAddressToInfo[_tokenSwap].decimals;\r\n    uint256 decimalsReceive = TokenAddressToInfo[_tokenReceive].decimals;\r\n    uint256 calculatedAmount = _amount * rateReceive * (10 ** decimalsReceive) / rateSwap / (10 ** decimalsSwap);\r\n    return calculatedAmount;\r\n  }\r\n\r\n  // delete token's address from tokens array\r\n  function deleteAddressFromTokens(address _addr) internal {\r\n    uint256 tokensLength = tokens.length;\r\n    int256 deletingIndex = -1;\r\n\r\n    for (uint256 i = 0; i < tokensLength; i++) {\r\n      if (tokens[i] == _addr) {\r\n        deletingIndex = int256(i);\r\n      }\r\n    }\r\n\r\n    if (deletingIndex >= 0) {\r\n      tokens[uint256(deletingIndex)] = tokens[tokensLength - 1];\r\n      tokens.pop();\r\n    }\r\n  }\r\n\r\n  receive() external payable {\r\n    emit Received(msg.sender, msg.value);\r\n  }\r\n}\r\n",
  "sourcePath": "C:\\Users\\lam.nguyen\\Source\\BRE\\TokenSwap\\contracts\\contracts\\TokenSwap.sol",
  "compiler": {
    "name": "solc",
    "version": "0.8.21+commit.d9974bed.Emscripten.clang"
  },
  "schemaVersion": "3.4.14",
  "updatedAt": "2023-08-08T06:35:36.941Z",
  "networkType": "ethereum",
  "devdoc": {
    "kind": "dev",
    "methods": {},
    "version": 1
  },
  "userdoc": {
    "kind": "user",
    "methods": {},
    "version": 1
  }
}